:100000000C942A000C941A010C9447000C9447009D
:100010000C9447000C9447000C9447000C94470044
:100020000C9447000C9447000C9447000C94470034
:100030000C9447000C9447000C9447000C94470024
:100040000C9447000C9447000C9447000C94470014
:100050000C94470011241FBECFE5D8E0DEBFCDBF12
:1000600010E0A0E6B0E0EEE7FAE002C005900D92E5
:10007000A238B107D9F711E0A2E8B0E001C01D92A3
:10008000A135B107E1F70E94AB010C943D050C943A
:1000900000000E94D0030E941D0286E063E00E94DF
:1000A00054030895CF93DF938AE061E00E944304F4
:1000B000809185008430F9F0853038F4823089F001
:1000C0008330A0F4813059F507C08630F1F08630D6
:1000D000B8F0873021F51EC080E690E00E948404CD
:1000E00022C084E690E00E9484041DC088E690E06F
:1000F0000E94840418C08CE690E00E94840413C01F
:1001000080E790E00E9484040EC084E790E00E94A3
:10011000840409C088E790E00E94840404C08CE74E
:1001200090E00E94840481E062E00E944304809198
:1001300084008A3018F480E30E94250480918400B2
:1001400090E069E870E04AE050E00E94F8040E9404
:10015000840480E890E00E948404809183008A30C7
:1001600018F480E30E942504C9E8D0E08091830060
:1001700090E0BE014AE050E00E94F8040E9484042E
:1001800080E890E00E94840482E30E94250480E3DA
:100190000E9425048091820090E0BE014AE050E078
:1001A0000E94F8040E948404DF91CF91089581E0B9
:1001B00061E00E944304809186008A3018F480E355
:1001C0000E9425048091860090E069E870E04AE092
:1001D00050E00E94F8040E94840480E890E00E94AD
:1001E0008404809187008A3018F480E30E942504FB
:1001F0008091870090E069E870E04AE050E00E945A
:10020000F8040E94840480E890E00E9484048091B5
:1002100088008A3018F480E30E94250480918800C9
:1002200090E069E870E04AE050E00E94F8040E9423
:10023000840408951F920F920FB60F9211242F93EA
:100240003F934F935F936F937F938F939F93AF935E
:10025000BF93EF93FF93F894809188008F5F809312
:1002600088008C3339F410928800809187008F5F6A
:1002700080938700809187008C3339F41092870037
:10028000809186008F5F8093860080918600883100
:1002900061F410928600809184008F5F80938400C7
:1002A000809185008F5F80938500809185008830E4
:1002B00019F481E08093850080918400803249F4B4
:1002C000809183008F5F8093830081E0809384001E
:1002D00015C08F3199F480918300863049F08730C2
:1002E00018F4843059F404C0893011F08B3031F4A3
:1002F0008F5F8093830081E08093840080918300EE
:100300008D3041F4809182008F5F8093820081E084
:10031000809383000E94D7000E9452007894FF913E
:10032000EF91BF91AF919F918F917F916F915F916D
:100330004F913F912F910F900FBE0F901F901895E6
:10034000982F92959F70990F292F220F220F920FAD
:100350008F70890F08950E94490083E269E545E5A1
:100360000E945F0281E060E344E024E10E94B80261
:1003700088E890E067E870E046E850E00E942E02CE
:1003800085E890E064E870E043E850E022E830E07F
:100390000E947D02809188000E94A00180938800C5
:1003A000809187000E94A001809387008091860041
:1003B0000E94A00180938600809185000E94A00188
:1003C00080938500809184000E94A0018093840026
:1003D000809183000E94A00180938300809182001D
:1003E0000E94A001809382007894FFCFCF930E9457
:1003F000C70480ED60E00E94CD0480E00E94D50437
:100400000E94C70480ED61E00E94CD0481E00E945B
:10041000DF04C82F0E94DC040E94C70480ED60E066
:100420000E94CD0480E00E94D5048C2F8F770E941B
:10043000D5040E94DC04CF9108950E94C70480ED8A
:1004400060E00E94CD0487E00E94D50480E10E9414
:10045000D5040E94DC040E94F6010895EF92FF92F9
:100460000F931F93CF93DF93EC018B017A010E94CE
:10047000C70480ED60E00E94CD0480E00E94D504B6
:100480000E94DC040E94C70480ED61E00E94CD045C
:1004900080E00E94DF04888380E00E94DF04F8018E
:1004A000808381E00E94DF04F70180830E94DC04E6
:1004B000DF91CF911F910F91FF90EF9008951F93BF
:1004C000CF93DF93C82FD62F142F0E94C70480ED3F
:1004D00060E00E94CD0480E00E94D504812F0E943C
:1004E000D5048D2F0E94D5048C2F0E94D5040E9424
:1004F000DC04DF91CF911F910895CF92DF92EF92AC
:10050000FF920F931F93CF93DF93EC018B017A013E
:1005100069010E94C70480ED60E00E94CD0483E081
:100520000E94D5040E94DC040E94C70480ED61E0B3
:100530000E94CD0480E00E94DF04888380E00E9456
:10054000DF04F801808380E00E94DF04F7018083EC
:1005500081E00E94DF04F60180830E94DC04DF91C9
:10056000CF911F910F91FF90EF90DF90CF90089562
:100570000F931F93CF93DF93082F162FD42FC22FE3
:100580000E94C70480ED60E00E94CD0483E00E94D9
:10059000D504802F0E94D504812F0E94D5048D2F71
:1005A0000E94D5048C2F0E94D5040E94DC04DF91A8
:1005B000CF911F910F9108951F93CF93DF938C30AC
:1005C00009F04AC00E94C70480ED60E00E94CD049B
:1005D00082E00E94D5040E94C70480ED61E00E9481
:1005E000CD0481E00E94DF04182FCDEED0E090E032
:1005F000BE014AE050E00E94F8040E9484048FE7A4
:100600009AE1A6E081509040A040E1F700C00000D0
:100610001064812F90E0BE014AE050E00E94F8048F
:100620000E9484048FE79AE1A6E081509040A040A8
:10063000E1F700C000000E94DC040E94C70480EDC6
:1006400060E00E94CD0482E00E94D504812F0E94C8
:10065000D5040E94DC0424C00E94C70480ED60E041
:100660000E94CD0482E00E94D5040E94C70480ED60
:1006700061E00E94CD0481E00E94DF04C82F0E9447
:10068000DC040E94C70480ED60E00E94CD0482E09B
:100690000E94D5048C2F8F7B0E94D5040E94DC041D
:1006A000DF91CF911F910895863031F08730E9F0C6
:1006B000853009F041C032C0662311F415BE11C067
:1006C000613021F485B7816085BF0BC0633021F4B0
:1006D00085B7826085BF05C0623019F485B7836035
:1006E00085BF8BB780648BBF0895662311F415BE58
:1006F00011C0613021F485B7846085BF0BC06330C1
:1007000021F485B7886085BF05C0623019F485B7CC
:100710008C6085BF8BB780688BBF0895633021F4F0
:1007200085B78F7B85BF05C0623019F485B78064BB
:1007300085BF8BB780628BBF0895009719F00000CA
:100740000197E9F70895009741F0E9EFF0E031975C
:10075000F1F700C000000197C1F70895CF93C82FAB
:100760008BB39C2F907F8F70892B8BBBD898D99897
:10077000DA9A81E090E00E949D03DA9884E190E0AB
:100780000E949D038BB3C295C07F8F70C82BCBBBDB
:10079000DA9A81E090E00E949D03DA98CF91089563
:1007A0008FEF8ABB80ED97E00E949D0383E30E9458
:1007B000AE0384E690E00E949D0382E30E94AE03B4
:1007C00084E690E00E949D0388E20E94AE0384E6E6
:1007D00090E00E949D038CE00E94AE0384E690E0CE
:1007E0000E949D0381E00E94AE0380ED97E00E948D
:1007F0009D0386E00E94AE0384E690E00E949D0384
:1008000008958FEF8ABBDA9880E29EE40E949D03F0
:1008100083E00E94AE0380E197E20E949D0383E0A3
:100820000E94AE0388EE93E00E949D0383E00E9445
:10083000AE0388EE93E00E949D0382E00E94AE0327
:1008400088EE93E00E949D030895CF93C82F8BB349
:100850009C2F907F8F70892B8BBBD89AD998DA9A6E
:1008600081E090E00E949D03DA988BB3C295C07F2F
:100870008F70C82BCBBBDA9A81E090E00E949D0379
:10088000DA98CF910895CF93DF9300D000D0CDB701
:10089000DEB790E8998390EC9A8394E99B8394ED7A
:1008A0009C838150FE01E60FF11D9081890F0E940B
:1008B000AE0384E690E00E949D030F900F900F908E
:1008C0000F90DF91CF9108958FE00E94AE0384E6F0
:1008D00090E00E949D0308958CE00E94AE0384E6A0
:1008E00090E00E949D03089580E10E94AE0384E69B
:1008F00090E00E949D03089584E10E94AE0384E687
:1009000090E00E949D0308950F931F93CF938C0155
:10091000FC018081882351F0C0E00E942504CF5F54
:10092000F801EC0FF11D80818823B9F7CF911F9159
:100930000F91089581E00E94AE0380ED97E00E9440
:100940009D0381E061E00E94430408950F931F938B
:10095000CF93DF93062F172F883070F4880F880FFE
:10096000880F805C0E94AE03C02FD12F18E08991C0
:100970000E9425041150D9F7DF91CF911F910F915B
:10098000089581B960B986B7846086BF089584EA06
:1009900086BF06B607FEFDCF0895862B83B984E88F
:1009A00086BF06B607FEFDCF089583B984E886BFEB
:1009B00006B607FEFDCF089584E986BF0895882313
:1009C00019F084E886BF02C084EC86BF06B607FE35
:1009D000FDCF83B1089594E096BF82B984EC86BFC1
:1009E000089506B607FEFDCF089581B1887F08956A
:1009F000FB019F01E8944230C4F04532B4F44A3020
:100A000029F497FB1EF4909581959F4F642F7727CB
:100A10000E942905805D8A330CF0895D8193CB01AA
:100A20000097A1F716F45DE251931082C9010C946E
:100A30001905DC01FC01672F71917723E1F73297EB
:100A400004C07C916D9370836291AE17BF07C8F3A9
:100A50000895AA1BBB1B51E107C0AA1FBB1FA61705
:100A6000B70710F0A61BB70B881F991F5A95A9F757
:0E0A700080959095BC01CD010895F894FFCFBC
:100A7E005341540053554E004D4F4E0054554500B2
:100A8E0057454400544852004652490045525200C0
:020A9E003A001C
:00000001FF
